:020000040800F2
:10000000082D0020590100088B0100088D0100080F
:100010008F01000891010008930100080000000012
:100020000000000000000000000000009501000832
:1000300097010008000000009901000869150008F8
:100040009D0100089D0100089D0100089D01000818
:100050009D0100089D0100089D010008290A000873
:100060009D0100089D0100089D0100086F0900081E
:1000700029080008ED1500081116000835160008BB
:10008000551600089D0100089D010008C9150008CB
:100090009D0100089D0100089D0100089D010008C8
:1000A0009D0100089D0100089D0100089D010008B8
:1000B0009D01000800F002F800F03EF80CA030C8E6
:1000C000083824182D18A246671EAB4654465D46D4
:1000D000AC4201D100F030F87E460F3E0FCCB64660
:1000E0000126334200D0FB1AA246AB4633431847E1
:1000F000CCB20100ECB20100103A02D378C878C14A
:10010000FAD8520701D330C830C101D504680C6059
:10011000704700000023002400250026103A01D378
:1001200078C1FBD8520700D330C100D50B607047AF
:100130001FB51FBD10B510BD00F018FB1146FFF72D
:10014000F7FF14F019FD00F030FB03B4FFF7F2FFE6
:1001500003BC00F061FB0000144880F308881448D9
:100160000168090E134A9142FFD1134813490160F7
:100170001348144901601448124901600E4813499C
:1001800001601348804713480047FEE7FEE7FEE79B
:10019000FEE7FEE7FEE7FEE7FEE7FEE7FEE700001C
:1001A0000D480E490E4A0F4B70470000082D0020E5
:1001B000040000001F0000001C10024000000004AA
:1001C00018680040120000001C6800400000000099
:1001D00079150008B500000808270020082D002028
:1001E0000829002008290020034610B50B439B076F
:1001F0000FD1042A0DD308C810C9121FA342F8D08A
:1002000018BA21BA884201D9012010BD0020C0438C
:1002100010BD002A03D0D30703D0521C07E00020F2
:1002200010BD03780C78401C491C1B1B07D10378B8
:100230000C78401C491C1B1B01D1921EF1D11846A1
:1002400010BD0000034670B502460B439B070FD15B
:100250000E4CE60100E008C208C91D1B9D43354253
:10026000F9D0D9B21170521C00290DD01B0AF8E741
:100270000B78491C1370521C002B05D00B78491CBD
:100280001370521C002BF3D170BD0000010101015D
:1002900030B5441C03E00178401C00290DD08107D3
:1002A000F9D10B4BDD0104C8D11A91432940FAD092
:1002B000001B0A0603D0C01E30BD001B30BD0A045F
:1002C00001D0801E30BD0902FCD0401E30BD0000B0
:1002D00001010101024670B50A4392072AD11E4D61
:1002E000EE0104C808C9541B9443344017D0D0B25F
:1002F000D9B2401A2106014310D190B299B2401AE6
:10030000210401430AD110021902000A090A401A05
:100310002102014302D1100E190E401A70BD9A42FB
:10032000DFD010BA19BA884201D9012070BD00206F
:10033000C04370BD02780B78401C491C002A09D0CC
:100340009A4207D102780B78401C491C002A01D040
:100350009A42EFD0D01A70BD0101010100220309B9
:100360008B422CD3030A8B4211D300239C464EE0D0
:1003700003460B433CD4002243088B4231D303098C
:100380008B421CD3030A8B4201D394463FE0C3093E
:100390008B4201D3CB01C01A524183098B4201D356
:1003A0008B01C01A524143098B4201D34B01C01A41
:1003B000524103098B4201D30B01C01A5241C308B9
:1003C0008B4201D3CB00C01A524183088B4201D328
:1003D0008B00C01A524143088B4201D34B00C01A14
:1003E0005241411A00D201465241104670475DE029
:1003F000CA0F00D04942031000D3404253400022AC
:100400009C4603098B422DD3030A8B4212D3FC2254
:10041000890112BA030A8B420CD3890192118B42D3
:1004200008D3890192118B4204D389013AD09211E9
:1004300000E08909C3098B4201D3CB01C01A5241A4
:1004400083098B4201D38B01C01A524143098B426D
:1004500001D34B01C01A524103098B4201D30B0156
:10046000C01A5241C3088B4201D3CB00C01A52417B
:1004700083088B4201D38B00C01A5241D9D2430862
:100480008B4201D34B00C01A5241411A00D201469F
:10049000634652415B10104601D34042002B00D509
:1004A0004942704763465B1000D3404201B50020CB
:1004B000C046C04602BD704770477047F0B5FF2583
:1004C0002D04C609C209FF2704462E400137CB0977
:1004D0003E4348402A402B400746002A6BD0002B61
:1004E00069D0AA4267D0AB4265D0002800DA324614
:1004F0000125ED0529432C4309022002090AD21ADD
:100500004B0C7F24E31A434C000A7C44E35C7D24BB
:100510002404121914145B00A218884201D3521C3F
:1005200000E0400049420C465C4324115C43DB017F
:100530006415E318040A5C43C502200D0C464443CD
:100540006419250A5D432303EC0C0D466543000343
:100550000019EB184C42A34201D35B18401CD40590
:100560002018002B07D05B00C91804D3401C0029B9
:1005700001D1400840003F2189048A4209D3002A62
:1005800008DC1106090F04D0032149074018C00FE9
:10059000C007F0BD01224100120689187F225206D1
:1005A0009142F6D205214907C84201D59010F0BD0D
:1005B000FF20C005F0BD002F00DA32461648AA42DF
:1005C00007D2AB4205D21902090E17D0F80FC007A7
:1005D000F0BDFF2563002D06AB42F9D84900A942C2
:1005E000F6D8AB4201D1A942F2D0A94201D10021F3
:1005F00001E061004908D0050843F0BD1102090E71
:10060000FBD0FF200243D005F0BD0A46014610464C
:1006100054E7000018AE01000000C07F1F22030C49
:1006200002D10F2200041CD0030E01D10002083AAF
:10063000030F01D10001121F830F01D18000921E10
:10064000002801DB4000521ED20551180212511839
:100650001922904004D3491C002801D149084900BF
:1006600008467047C10FC90700D0404201229207D7
:100670001143D3E701218907D0E7000010B5FF221D
:10068000C30D134009D05A4007D0914205DA5C42AD
:10069000A14202DDC905081810BDC40FE407002BF4
:1006A00006D0002A06D0002902DBFF20C005044343
:1006B000204610BD4102FCD0004810BD0000C07FA4
:1006C00010B5FF231B0644009C421DD84C009C42E1
:1006D0001AD80346124A0B4307D4401A02D3EFF349
:1006E000008010BDEFF3008010BD081A06D2EFF3B2
:1006F000008001219043C907084302E0EFF3008026
:10070000904380F3008810BD0D231B041A4204D0CF
:100710001146002000F006F810BD00F01BF810BDD7
:1007200000000090C80212D54803400F002804D0F2
:10073000C803C043012188407047EFF300800001E7
:10074000000903210907084380F30088704700204F
:100750007047000010B5024800F02FF810BD0000EF
:100760000000C07F00487047A42600207546FFF7B0
:10077000F9FFAE46050069465346C008C0008546ED
:1007800018B020B5FFF70CFD60BC00274908B6463D
:100790000026C0C5C0C5C0C5C0C5C0C5C0C5C0C590
:1007A000C0C5403D49008D46704710B50446C0465F
:1007B000C0462046FFF7C9FC10BD10B50C46110716
:1007C000090F092904D00A290AD008290CD104E00C
:1007D00011460820FFF7A6FF06E0510606D501E006
:1007E000510601D50120C007214610BDD10607D50D
:1007F00001010909CC084907000E0006044309E07D
:10080000410F20024907000A0143200E00061D2265
:10081000D14101430846E7E701491820ABBEFEE796
:10082000260002007047000010B5074C0121204649
:1008300000F02AF8002806D00121204600F006F832
:10084000204600F08BF910BD002401404161704743
:100850000029416802D00122114301E04908490002
:100860004160704708220029816801D0114300E0EF
:1008700091438160704704220029816801D01143AF
:1008800000E09143816070470246526900200A42AD
:1008900000D001207047002A826801D00A4300E09E
:1008A0008A4382607047000010B542680C68D30B21
:1008B0004A68DB0322431A4342608268044B0C6996
:1008C0001A404B698968234311430B43836010BD71
:1008D000800000FF10B542680F24A402A2439B02CF
:1008E00013434360202905D2C26801238B401A4379
:1008F000C26010BDFF2906D0FA29FAD1C168090CDF
:100900000904C16010BDC168014A1143F9E7000044
:10091000FFCF000000214160816001614161016001
:100920007047FFB581B00F460C460026F0B2002597
:1009300000900198691C4843711CFFF70FFDB842F5
:1009400001D9C01B00E0381A844205D90446039837
:100950000570049900980870002C05D06D1C402D7E
:10096000E7D3761C042EE1D3204605B0F0BD7047D6
:100970000029016802D00122114301E04908490021
:100980000160704701684908490001600021016069
:1009900041608160C1601449134A0839904202D114
:1009A00048680F2205E0104A1432904204D148688A
:1009B000F0221043486070470B4A2832904203D11E
:1009C00048680F221202F4E7074A3C32904203D1F2
:1009D00048680F221203ECE7034A50329042EAD1F2
:1009E00048680F221204E4E70800024030B50368AB
:1009F0000C4A0C6A13408A684D6922430C692C43E7
:100A000022438C692243CC6922434C6A22438C6A7C
:100A100022431A430260CA6842600A6882604968D9
:100A2000C16030BD0F80FFFF10B5FF2401342046A8
:100A300000F01CF8002805D0204600F011F82046F0
:100A400000F00EF90124A402204600F00FF800285F
:100A500005D0204600F004F8204600F001F910BD52
:100A6000014948617047000000040140054A014601
:100A70001368002052690B400A4202D0002B00D0BC
:100A80000120704700040140F0B5CB7800241A071C
:100A9000120FDB0601D58B781A430B781B061B0E51
:100AA0001AD0036801270D88A7403D40BD420FD1F1
:100AB000A6000F25B540AB431546B5402B43CD7876
:100AC000282D02D0482D02D002E0476100E00761E6
:100AD000641C082CE6D303600B88FF2B1CD94368E9
:100AE00000252E4608360124B4400E882640A64232
:100AF0000ED1AF000F26BE40B3431646BE4033436F
:100B0000CE78282E00D14461CE78482E00D10461E1
:100B10006D1C082DE5D34360F0BD4B0710B5DB0E0F
:100B20009A40CC080F219940002C06D0436A8B4391
:100B30004362416A1143416210BD036A8B43036201
:100B4000016A1143016210BD0246926800200A4208
:100B500000D00120704701617047000070B5214945
:100B600088423CD1204803F03BFB1F4C208AFFF712
:100B700081FD01461D4D20462A46383014F084FD83
:100B8000608AFFF777FD014620462A46843014F03C
:100B90007BFD174D10212846FFF7D6FF2834207023
:100BA00020212846FFF7D0FF60702078002808D168
:100BB000A078012805D160780128A06810D0401ED7
:100BC000A06010212846FFF7BFFFA0702021284613
:100BD000FFF7BAFFE0701021064800F042F870BD40
:100BE000401CEDE700240140100100200000C84235
:100BF000000C004800080048F0B5114E07468BB0C5
:100C000014460D463046FFF7BDFE80200097059044
:100C10000021019540000291069080000790039406
:100C200020200491089000020A91099069463046FC
:100C3000FFF7DCFE01213046FFF79AFE0BB0F0BD56
:100C40000800024070B5044600F01AF80546601C22
:100C500000D0641C00F014F8401BA042FAD370BD11
:100C60007047C26813460B401B0491430B4303615A
:100C70007047002A01D00161704741617047000050
:100C80000148006870470000000000200248016829
:100C9000491C0160704700000000002070B500F0A2
:100CA0006BFC0D487D21C9000068FFF757FB411E12
:100CB0000A480025ED43814209D8094C61610321AE
:100CC000284600F025FB0020A061072020610021BC
:100CD000284600F01DFB70BD08000020FFFFFF004C
:100CE00000E000E008B56B46187059709A706846CD
:100CF00000F0E6FA08BD0000FFB581B015460C46CD
:100D0000FFF7BEFF86B20D4F13E001980089C007C0
:100D100007D02178019800F09BFB6D1EADB2641CDA
:100D200007E0FFF7ADFF811B0498814201D3B84271
:100D300001D1002DE9D105B0F0BD0000FFFF00009A
:100D4000054883695B085B0083614162C261816918
:100D500001221143816170474000024010B5022317
:100D600004461A46032100F0B3FC0121204600F09E
:100D7000A3FC10BD044910B5884203D110210348DB
:100D8000FFF76FFF10BD0000002C01400008004875
:100D900010B586B06846FFF7BDFD01214C02204624
:100DA00000F0F0FA002070216A4613C2059020205E
:100DB000264C049069462046FFF776FD0121204627
:100DC000FFF759FD00220C2311462046FFF782FD54
:100DD00001220C2311462046FFF77CFD02220C2342
:100DE00011462046FFF776FD03220C2311462046CC
:100DF000FFF770FD04220C2311462046FFF76AFD21
:100E000005220C2311462046FFF764FD06220C2321
:100E100011462046FFF75EFD07220C2311462046AF
:100E2000FFF758FD01212046FFF71CFD0121204658
:100E3000FFF70EFD012211462046FFF72CFD01228F
:100E400011460C20FFF74EFF06B010BD00240140F4
:100E500010B50121084600F07DFA10BDF8B501215A
:100E6000480400F077FA0121880400F073FA0121A8
:100E7000C80400F06FFA0121080500F06BFA0124A4
:100E8000A40221465248FFF766FE524F1021384611
:100E9000FFF761FE68460480012484701025C57048
:100EA00069464B48FFF7F0FD684605808470C570C1
:100EB00069463846FFF7E8FD6846058084700426D9
:100EC000C67069464448FFF7DFFD2021684601806F
:100ED0008470C67069464048FFF7D6FD68460580B5
:100EE00084704821C17069463948FFF7CDFDFF2164
:100EF0006846018084700021C17009206946C006DF
:100F0000FFF7C2FD072205213148FFF706FE072241
:100F100006212F48FFF701FE072211462C48FFF754
:100F2000FCFDE0216846018084701825C570694683
:100F30002748FFF7A9FD062200213846FFF7EDFDFF
:100F4000052201213846FFF7E8FD05220221384637
:100F5000FFF7E3FD052203213846FFF7DEFD0F21F1
:100F6000684601808470C57069463846FFF78CFD7D
:100F7000052207213846FFF7D0FD05220821384613
:100F8000FFF7CBFD2901684601808470C670694671
:100F90003846FFF779FD052207210F48FFF7BDFD11
:100FA000062208210A48FFF7B8FD80216846018023
:100FB0008470C67069460848FFF766FD21026846DE
:100FC00001808470C67069460148FFF75DFDF8BD79
:100FD0000004004800080048000C0048F0B501215A
:100FE00091B0880400F0B6F90121C80400F0B2F90C
:100FF00001218F03384600F0B9F979006846018075
:101000000125857010262F4CC67069462046FFF7D3
:101010003BFD684607808570C67069462046FFF72D
:1010200033FD8027684607808570C670694626486C
:10103000FFF72AFD01220C212046FFF76EFD042256
:101040000D212046FFF769FD032109036846018051
:10105000032181701821C17069462046FFF714FDF5
:101060000421684601860024448608218186C486BE
:101070000587448702218187144DC4870CA928461F
:1010800000F0BCF90121284600F0A6F90821284605
:1010900000F084F90E48FFF775FC0594A814069734
:1010A000089401950A900794099401A903960B945A
:1010B0000748FFF79BFC01225102284600F096F9F1
:1010C00011B0F0BD0004004800080048003800409E
:1010D0005800024030B501218DB0C80200F052F92D
:1010E000684600F05DFC002428480290284D0094DA
:1010F0000394694601940C74284600F017FC6020A4
:10110000694688820120C882042008834C838C832E
:10111000CC83800108844C8405A9284600F000FB9C
:1011200005A9284600F048FB05A9284600F0A0FBC9
:101130000821284600F038FB0821284600F08CFBE7
:101140000821284600F0E0FB7D204001E8630120F3
:101150008003694608868C854010C8852A2048850A
:101160000C85CC848C8409A9284600F091FA0121D1
:10117000284600F081FA2021284600F0CDFB01220C
:1011800011460D20FFF7AEFD0DB030BDFF31000060
:10119000002C014010B5012186B0084600F0E6F8A9
:1011A0000B480290002000900390694601900124B2
:1011B0000874A407204600F0B9FB2021204600F067
:1011C000ABFB012211460F20FFF78CFD06B010BDCE
:1011D000FFFF000010B586B00121022000F0C6F824
:1011E0000B48029000200090039069460190094C42
:1011F0000874204600F09AFB2021204600F08CFB6A
:10120000012211461020FFF76DFD06B010BD000051
:10121000FFFF00000004004070B501214D038EB0B7
:10122000284600F0AFF8684600F0BAFB00242248D8
:101230000290224E00940394694601940C74304647
:1012400000F074FB6020694688820120C882042077
:1012500008834C838C83CC83800108844C8405A94B
:10126000304600F05DFA05A9304600F0A5FA0821E5
:10127000304600F099FA0821304600F0EDFA680097
:10128000694608868C85CD852A2048850C85CC84C6
:101290008C8409A9304600F0FBF90121304600F0AA
:1012A000EBF92021304600F037FB012211461120D6
:1012B000FFF718FD0EB070BDFF31000000080140BF
:1012C00030B5837801210278002B15D094080E4B9D
:1012D000A400E41823689207D50EFF22AA40934386
:1012E00042789207120EAA401A4322600078C00684
:1012F000C00E8140054804E0D006C00E814003487E
:101300008030016030BD000000E400E000E100E05A
:101310008307FF22DB0E9A408907090E99400028B7
:101320000BDA0007000F0838830808489B001818DC
:10133000C36993430B43C3617047830804489B0010
:101340001B181868904308431860704700ED00E0D0
:1013500000E400E0044A0029516901D0014300E0A3
:10136000814351617047000000100240044A002987
:10137000D16901D0014300E08143D1617047000091
:1013800000100240044A0029916901D0014300E0A5
:1013900081439161704700000010024030B508227F
:1013A0000C4D082909D00B4C1023083C102907D0FC
:1013B000A94208D1018B914309E0018B114306E05A
:1013C000018B194303E0A14202D1018B99430183B0
:1013D00030BD0000F7FF00000029018B02D0012280
:1013E000114301E04908490001837047002A028B3C
:1013F00001D00A4300E08A430283704710B5038B93
:101400000F22120313404A884C8922430C881C4344
:1014100022430283828B3F23DB431A40CB89CC8853
:1014200023430C8914432343182213438383028CE0
:101430008A8902848A88082A07D0828B04231A4367
:101440008283828B08231A4382838988818510BD19
:10145000828D1206120E0DD00160082A01D90B0AE6
:101460000360102A01D90B0C0360182A01D9090E58
:101470000160704720220160F1E7F8B507461C467D
:1014800015460E462A2014F0A9FA0020009068465E
:101490004770C570042114F0B7FA2B2014F09EFA9F
:1014A00068464670C470042114F0AEFA2C2014F083
:1014B00095FAF8BD1CB5284C20680121084320602E
:1014C00020688007FCD526482449264A0160106818
:1014D0001023184310601068C008C0001060136823
:1014E0000320034313606068606060686060606848
:1014F000121510436060606803221204904360601C
:1015000020680003000B206001AB6A46C810FFF79B
:1015100008FA20680003000B206069460878097902
:1015200080060905084321680843206020680121DE
:1015300009060843206020688001FCD560688008A7
:101540008000606060680221084360606068000796
:10155000800F0228FAD11CBD0010024000D8B80547
:10156000080000200020024010B5FFF78FFB01208B
:1015700013F09CF910BD000010B51048016801225D
:101580001143016041680E4A1140416001680D4AF3
:101590001140016001680122920491430160416899
:1015A0007F2212049143416001680903090B016025
:1015B0009F2109048160FFF77DFF10BD00100240EC
:1015C0000000FFF0FFFFF6FE10B5074C012120469A
:1015D00000F09AF8002806D00121204600F068F8B3
:1015E0002046FFF7C7FB10BD0040014010B5074C77
:1015F0000121204600F088F8002806D0012120466D
:1016000000F056F82046FFF7B5FB10BD002C014056
:1016100010B5074C0821204600F076F8002806D0C7
:101620000821204600F044F82046FFF7A3FB10BD38
:10163000002C014010B501218C07204600F064F811
:10164000002806D00121204600F032F82046FFF79E
:1016500091FB10BD10B5074C0121204600F054F855
:10166000002806D00121204600F022F82046FFF78E
:1016700081FB10BD000400400029016802D08022D7
:10168000114301E0014A1140016070477FFF0000F3
:1016900010B50A884B88CC881A438B8823431A4399
:1016A0000B891A434B8989891A430A43426410BD46
:1016B000C9430161704700000029016802D001227E
:1016C000114301E0014A114001607047FEFF000034
:1016D00070B58468A6B28469056AA4B2F608F600FB
:1016E0000E430849ADB20C40FF2102310C43AA2140
:1016F0008D431905090C11432943866084610162F9
:1017000070BD0000FCFC0000024613690020D26896
:101710000B400A40002B02D0002A00D00120704765
:1017200030B5026A1A4B1A400262026A436892B2EA
:1017300084699BB2A4B27025AC43A4080D88A400B0
:1017400025430224A2430C8914434A882243114CA6
:10175000A04208D0104CA04205D0104CA04202D0AC
:101760000F4CA0420DD10824A2434C8914430422FB
:1017700094438A8822430B4C23408C891C43CB8999
:10178000234343608561C9884163026230BD000024
:10179000FEFF0000002C01400044014000480140D1
:1017A00000080140FFFC00008269082392B29A43BE
:1017B0000A43826170470000F0B5026A204B1A406C
:1017C0000262026A94B24268836992B21D4D9BB272
:1017D0002B400D782D062D0C1D4320239C430B8997
:1017E0001B051E0C4B8826431B051B0C3343164C54
:1017F000164EA04201D0B0421BD1154F3A408F89FE
:10180000BF043F0C3A43A04201D0B04211D1802422
:10181000A3434C892405240C1C4340239C438B8800
:101820001B051B0C23430B4C2240CC89A404240C25
:10183000224342608561C98881630362F0BD000074
:10184000EFFF0000FF8C0000002C01400008014069
:10185000FFFB0000FFF700008269044B92B209060B
:101860001A40090C1143816170470000FFF7000026
:1018700030B5026A1D4B1A400262026A93B2426896
:10188000C46992B2A4B27025AC43A4080D88A40028
:101890002543174C23400C7A2406240C1C438B78D8
:1018A0001B061B0C2343134CA04202D0124CA04237
:1018B00015D1124C23408C7A2406240C1C43104B67
:1018C0001C400B791B061B0C23430E4C22408C89B9
:1018D0002405240C1443CA891205120C22434260C9
:1018E000C561C988C163036230BD0000FFFE00000E
:1018F000FFFD0000002C014000080140FFF7000040
:10190000FFFB0000FFCF0000C269082392B29A4398
:101910000A43C261704700004268034B1A404260AC
:1019200042680A43426070478FFF000030B502688A
:10193000154B164C92B2984207D0E504A84204D049
:10194000134DA84201D0A04204D17025AA438D882E
:101950001543AAB20F4D2A408D891543AAB20260E1
:101960008A68C2620A688262984207D0A04205D0A3
:10197000094A904202D0094A904201D1097C016390
:101980000121416130BD0000002C014000080140F0
:1019900000040040FFFC00000044014000480140FA
:1019A0000349816000210160C1604160017470479A
:1019B000FFFF000030B47446641E2578641CAB42FF
:1019C00000D21D46635D5B00E31830BC1847000081
:1019D00010B54021074801F0ADF9002304221E2173
:1019E000054812F067FD054CA06002F041FC0020A4
:1019F000207010BD2C110020394300087C0000200D
:101A0000FFB51C4681B0064600251300FFF7D2FF44
:101A1000150C1B1D2D354251595B636574818391F3
:101A20009DA2A7ACB0C238000AF0F3F805460298B0
:101A30000AF0EFF80146E80FCA0F4019511840109C
:101A40004910401A96E025800DE00AF0E2F80746BA
:101A500002980AF0DEF8F90FC20FC91910184910E0
:101A60004010081A82E065800AE00AF0D2F80746C2
:101A700002980AF0CEF8381A78E025808EE060806F
:101A800020883188401820806088718840186080E4
:101A900005B0F0BD0AF0BDF8054602980AF0B9F8A5
:101AA0000146E80FCA0F4019511840104910401A5A
:101AB00072E00AF0AEF8054602980AF0AAF8281A71
:101AC0006AE0258058E00AF0A4F8054602980AF07A
:101AD000A0F8281A4EE0258016E00AF09AF805468C
:101AE00002980AF096F80146E80FCA0F40195118FB
:101AF00040104910401A06E00AF08BF8054602989B
:101B00000AF087F8281A208002980AF056F8404216
:101B1000B5E7258016E00AF07CF8054602980AF041
:101B200078F8E90FC20F4919101849104010081A27
:101B300006E00AF06EF8054602980AF06AF8281ADC
:101B4000208030460AF039F899E702980AF061F8E7
:101B500040420BE002980AF05CF840420AE002982A
:101B60000AF057F8404217E00AF053F820807AE76D
:101B70000AF04FF8208030460AF01FF80546029818
:101B80000AF01BF8E90FC20F49191018491040104C
:101B9000081A74E70AF03DF8208030460AF00DF884
:101BA000054602980AF009F8281A68E770B500247B
:101BB00000230C5FD35E9C4200DD23460380022598
:101BC00002244D5F145FA54200DD2C4644800426AC
:101BD00004258E5F555FAE4200DA354685800626C5
:101BE0008E5F0621515E8E4200DB0E46C6800120CC
:101BF000AB4201DCB44200DD002070BDF8B50D46FB
:101C0000044600200021205E695E1646884243DBC0
:101C100002210222615EAA5E91423DDB0421042280
:101C2000615EAA5E914237DC06210622615EAA5EF1
:101C3000914231DC002E2DD06946088060884880B2
:101C40003246284600F046F8002824D0A18868468D
:101C500001806188418032466946284600F03AF8A2
:101C6000002818D0218868460180E18841803246EA
:101C70006946284600F02EF800280CD0A188684656
:101C80000180E188418032466946284600F022F80A
:101C9000002800D00120F8BD0020F8BD0022042358
:101CA000825ECB5E9A4213DC04220023825ECB5E0E
:101CB0009A420DDB02220623825ECB5E9A4207DC4B
:101CC0000622825E0220085E824201DB012070470C
:101CD00000207047FEB514460E4600210022715EBA
:101CE000825E0546914239DB0420285E814235DC64
:101CF00002210227715EEF5FB9422FDB0623EB5E04
:101D000099422BDC002C70DD801A401C00B2C10F00
:101D100008184110D81B401C00B2C30F18184010FF
:101D2000814200DA0846844200DD044668460280AB
:101D30002888002201196846818069884180688866
:101D400001196846C1803146FFF7C4FF002807D05B
:101D5000684680880119684681803DE00020FEBD0C
:101D6000E8886946001B4880E888C8800022314620
:101D70006846FFF7AFFF002805D068468088011944
:101D80006846818011E0A8886946001B0880A88801
:101D90008880002231466846FFF79CFF002809D062
:101DA00068460088011B684601804088011B684620
:101DB000418015E0688869464880688800220019DB
:101DC000C88031466846FFF785FF00280DD0684679
:101DD0000088011B68460180C08801196846C180DF
:101DE000314611F075FCFEBDFFE70120FBE710B5A1
:101DF000002400230C5FD35E9C4200DA234603805C
:101E0000022402230C5FD35E9C4200DA2346438007
:101E1000042404230C5FD35E9C4200DD23468380B0
:101E20000623CB5E0621515E8B4200DC0B46C3804D
:101E300010BDFFB587B0119E109F1D46022E4FD3D7
:101E4000002F4DD001F094FC00900BF037FB0446BE
:101E50008068069000981034416A002900D08847B5
:101E600004A8089A0799FFF7A1FE002838D0684611
:101E7000008A2188401A02B268460282408A61883C
:101E8000411A68464182808A2188401A01B2684618
:101E90008182C08A6388C31A6846C382002D12D02B
:101EA0000098007AC0070ED1881A401C01B20020A9
:101EB00007E02A5C802A01D9FF2200E000222A5490
:101EC000401C8842F5DB0098406900280AD0019543
:101ED0000297009604AA2046099B069907F004F988
:101EE0000BB0F0BD1298029700280096019507D01C
:101EF000039004AA2046099B069906F05FFEEFE7CF
:101F000004AA2046099B069906F0F6FEE8E7FFB50D
:101F100089B0139E129F1D46022E51D3002F4FD021
:101F2000014605A80A9AFFF741FE002848D001F0B3
:101F30001FFC00900BF0C2FA0446806807900098DE
:101F40001034416A002900D088476846808A218879
:101F5000401A01B268468182C08A6288821A684645
:101F6000C282008B2288801A02B268460283408BAC
:101F70006388C31A68464383002D12D00098007A04
:101F8000C0070ED1501A401C01B2002007E02A5CA5
:101F9000802A01D9FF2200E000222A54401C8842F6
:101FA000F5DB0098406900280CD00B980090029552
:101FB0000397019605AA20460A9B079913F0B3F8E8
:101FC0000DB0F0BD149800280CD0019604900B9829
:101FD00000900295039705AA20460A9B079912F0E4
:101FE00007FEEDE70B98009002950397019605AA6E
:101FF00020460A9B079912F0AFFEE1E710B5FF30CB
:1020000081300268054C93019B0D22408B4203D323
:10201000591A890589090A43026010BDFFFF00FCB7
:10202000F0B58DB0054612F037FC0890554CE868C5
:1020300060600021284612F071FB6068416C002945
:1020400013D011F06DFD11F0DFFCFF2160688131CC
:1020500009588901890D7DD00BF0E3FA00286BD077
:1020600060684169002967D107E0FF308130464A46
:102070000168114001600DB0F0BD0BF01FFA05467C
:1020800011F048FEA8690028FCD160680021415E7B
:10209000480000F073FF0190A9680391286881420D
:1020A00000D16868069060680BF01EFA0025099060
:1020B00034E04A19FF3261329278002A2CD1EF00C5
:1020C000781840302424045F099922464A4322218B
:1020D000415EC08C5218401A401C00B24000029071
:1020E00009985600400005900FE00698029A811961
:1020F000019800F0FDFF0398029A8019019900F001
:10210000F7FF05988619641C24B21E4868214068B0
:102110003818415EA142E8DA6D1CADB21948FF22C1
:102120004168813252589201920DAA42C1D8019859
:10213000002801D000F0A2FF124CFF21606801319D
:10214000623001F0BAF860682021FF30633001F09E
:10215000B4F800E010E060680B4AFF30813001689D
:1021600011400160089812F091FB01466068836994
:10217000002B01D02268984700F0E0FE00F006F83E
:1021800079E7000020000020FFFF00FC10B5044CA0
:102190002068002803D00FF049F90020206010BD0E
:1021A000A000002010B54421014800F0C3FD10BD7F
:1021B0001411002010B51821014800F0BBFD10BD1E
:1021C00038110020F0B591B00446179D16981E00F6
:1021D00002D1C31FF93B7DD00023EB5E00275B4299
:1021E00043431B125B1E1BB223809C460223EB5E03
:1021F0005B4243431B125B1E1BB26380EF5FC91B34
:1022000041430912891C09B2A1800227EF5FD21B4A
:1022100042431012801C00B2E080002E7ED00A21C2
:102220003046FEF7A5F80746401C03900A20784385
:10223000361A38B201F052FE0590039800B201F050
:102240004DFE5A37029038B201F048FE01900398D3
:102250005A3000B201F042FE04900A20871B059814
:10226000394641430298704308180A21FEF780F866
:10227000029001980A214743049870433818FEF7EA
:1022800077F8029900264A1102274011A65FE75FFE
:102290001346014671437A438E469446891A8A1240
:1022A0002988109151180AB269460A830792089248
:1022B0001A46724306467E4391190B926A88891228
:1022C00089180FB269460F924F830425655F014656
:1022D000694300E045E062460D91891A8A1210991F
:1022E00051180AB269460A8394461A466A439119FC
:1022F0000C920F9A891289180EB269464E830625F0
:10230000655F1A466A437146891A0E928A121099BD
:1023100051180BB269460B829E4600E02AE06843E2
:102320000B9A0346D0180F9A8012801805B24D827E
:102330000E9A0D981099801A8212501802B26946AE
:102340008A8011460C9AD0180F9A8012801802B217
:102350006846C2801046089A7346964517DA1A46B0
:1023600016E000202080491E6080A180521EE2807D
:1023700011B0F0BD2E886246921922806A889A18A0
:1023800062802A888918A1806988401853E0079ADA
:102390006346614500DA0B469A4205DA079A7346AE
:1023A000964505DA1A4603E06246614500DA0A46B8
:1023B0002280079A7346964500DD1A4663466145BA
:1023C00000DD0B469A4204DD079972468E4503DC18
:1023D00003E06246614500DC1146A180BD4201DA9E
:1023E000294600E03946B04201DA024600E03246B2
:1023F000914205DABD4201DA294606E0394604E099
:10240000B04201DA014600E031466180BD4201DDA3
:10241000294600E03946B04201DD024600E032467E
:10242000914205DDBD4201DD284604E0384602E068
:10243000B04200DC3046E0809AE70000F0B5044688
:102440008BB0006802900820205E656A081A0A2195
:10245000615EA36A511AE289D61FF93E3FD0A28974
:10246000002A4CD0A66B704342114E43E06A216BA8
:10247000074676118C4651437743C91B8912491987
:10248000079161465043714340188012C01808906C
:1024900007980712089806120420205EB84255DDFE
:1024A000002F53DB0621615EB1424FDD002E4DDB74
:1024B000214620310991097D4A074AD523468907DB
:1024C0001433002924DB7043C01902214500009118
:1024D0000298009A4119184600F0ABFE2AE0E66A1D
:1024E000226B3746944642434F43D21B92105219F7
:1024F0000792624646434A43B0188010C6E7A26B73
:10250000504346114A43A919501118180791BEE7C4
:1025100003217043C019009141004518029802221E
:102520004119184600F085FE0299E81C4018203831
:10253000C07FA0750998007DC00720D01A48694661
:1025400000680190A08A8988884218D100200BB0C9
:10255000F0BD00250095236932B2204639B218300B
:102560000A92059102900CF095FF019068468088D0
:10257000A0820A9A059902980CF024FFD9E7E07C22
:1025800000280ED00798A0870898E08720464030A2
:1025900007804680656400990172204600F006F8C5
:1025A000D5E70120D3E70000B47C0108F0B504466C
:1025B00091B000680890A08F0026C1B2E08F254638
:1025C000F6434035C0B2702907DA0022AA5E3746CA
:1025D000012A00D5002780310DE0902916DD002268
:1025E000AA5E0423E35E0127521C9A4200DB002707
:1025F000FF228032511AC9B20291702809DA0221F1
:10260000695E012900D50026803010E00027FF21F7
:10261000F2E7902860DD0221695E0622A25E0126B3
:10262000491C914200DB0026FF218031081AC0B20C
:10263000019060690B90A07D0C9000200F900A9093
:102640000E90204620301090007D400747D5287A14
:10265000616C7843091808980222091805A800F04F
:10266000F3FD0420205E297A02224843616C704306
:1026700041180898091806A800F0E6FD0421615EDB
:10268000287A626C414371438918089A784380180C
:102690000918022207A800F0D7FD1098007D8007D6
:1026A0005ED5287A616C0546089B7D434A19C3189C
:1026B000D218203AD27F0F920422A25E4243724384
:1026C0005118CA1828180918203A0898D27F0818F3
:1026D0000A922038C07F42E00026FF20A8E7288821
:1026E0000222C01901B22046AA5E18302369009068
:1026F0000CF0D0FE059068880021801902B2695E56
:10270000236900980CF0C6FE06906888236980193A
:1027100002B22888C01901B200980CF0BBFE0790E5
:102720001098007D80071BD528880222C01901B2AD
:10273000AA5E00980CF046FE0F9068880021801970
:1027400002B2695E00980CF03DFE0A90688880191C
:1027500002B22888C01901B200980CF033FE0E9026
:102760001098029A007D15468107FF20002934DA6F
:102770000F9E811A4E430C9B0E9F53439B190A9E3A
:10278000794356437118019F1B040904019E1B0ED7
:10279000090EC01B5E4348433018000AA075022B87
:1027A00006D8022902D8002011B0F0BD002002E0B6
:1027B000022901D8FF2001900C98022800D800229D
:1027C0000F98022800D8FF220A98022800D8002576
:1027D0000E98022802D8FF2500E0A075002A1ED01E
:1027E000FF2A1ED005990B9809F084FD0390002D57
:1027F00019D0FF2D19D02A460799069809F07AFDBD
:1028000000900198002807D0FF2810D002460099B8
:10281000039809F06FFD00906846008809E005986C
:10282000E4E70B98E2E70798EAE70698E8E76846E6
:102830008089A0820120B7E7F0B504460820205E19
:1028400087B0000260620A20205E0C260002A062AF
:10285000A65F0A213046FDF78BFD0546471C0A207E
:102860006843361A684200B201F038FB0590E8432D
:1028700000B201F033FB019028465A25281A00B215
:1028800001F02CFB0490E81B00B201F027FB039041
:102890000A20851B05982946414301987043081872
:1028A0000A21FDF765FD074604980A214543039870
:1028B00070432818FDF75CFD01467811E06248116D
:1028C0002063A07C0CF000FF25462035297D4908B7
:1028D000490001432975A07C0CF0E5FE4100287DEC
:1028E000FD22104008432875A17C042929D0052920
:1028F00027D0062925D0FB221040287520682062A9
:10290000A069E02290434009C9064001C90E08436E
:102910000D4901220840A188520589020843E18837
:10292000C002C00A49050843A061E189480880182F
:10293000FDF714FDA063FF20A075208AA08207B0D8
:10294000F0BD04221043D8E7FF03E0FFF3B53A4E91
:1029500081B03288002A04D03848394C05680020FC
:102960000BE00020FEBD242141434B19196AA1420E
:1029700001DD491E1962401C80B29042F3D36846C3
:10298000002407891FE024206043401901898F42F9
:1029900017D1416801980CF019FE002811D02420AD
:1029A000444360194269016A89187D22D20001629C
:1029B000914200DD02620028D4D12C4601203288E9
:1029C0000FE0641CA4B230888442DCD3F5E72421F4
:1029D000414349190B6A266AB34200DA0C46401C8F
:1029E00080B29042F3D36068002802D020460DF0F8
:1029F000A7F911F051FF05462046029A01990DF002
:102A0000F7F9002805D0002020626069002808D06E
:102A10000FE02421204600F050FC0120C007206276
:102A20009FE7284611F032FF6061002801D10120A4
:102A300060612046FEBD00003000002088000020BC
:102A40000100008010B510210D4800F073F90DF061
:102A50008BF904460AF034FC00280AD0002C07D079
:102A600008482060084860600848A0600848E060A6
:102A700010BD2246002307A00AF026FCFEE7000056
:102A8000441100201DF70008A1FA000885FC000889
:102A9000E5F600084F7574206F66206D656D6F72E6
:102AA0007900000010B5002108460DF081FB10BD33
:102AB00070B50C46054600261021204600F0FDFBAF
:102AC0002878012804D0022807D0042808D00BE079
:102AD000288C2080688C608006E0686A606003E073
:102AE0000A2060600020A0816A68002A03D0214685
:102AF000284690470646304670BD00007FB5284CFA
:102B0000C0686060C168002949D008F097F8606823
:102B10004030007C400742D4002569466068FFF7DA
:102B2000C7FF0646606808F089F825606846807B24
:102B300061680128087706D0087804280AD1684619
:102B4000808900281BD011F0A7FE6168C968FF3199
:102B50008131486062681078012806D0022809D0C7
:102B600004280CD003280FD012E06946104607F065
:102B700033FE0DE06946104607F01CFD08E069468B
:102B8000606807F0E9FA03E06946104607F020F8AC
:102B9000606808F053F8002EBFD1656025607FBDE6
:102BA0000C000020F0B585B00D46040003D10AF0FA
:102BB00087FC04002AD02F4F002D21D00020694629
:102BC0000880488020460AF08FFC6946401E8880B5
:102BD00020460AF001FD6946401EC8806A46294623
:102BE00002A8FEF7E3FF002810D02269002A02D0D5
:102BF00002A92046904725460026FF35813512E080
:102C00000446FF34813420683840206005B0F0BDB0
:102C1000F0000119002202A86231FEF7EFFF002840
:102C2000F4D1761CB6B228688001800DB042EFD88E
:102C300028688101890D202903D2C800001902A942
:102C400006E0384028608001800DC0000019694608
:102C5000623008F08CFF28681A21C84101218905DB
:102C600040180621C84128600321606B11F056FD11
:102C7000CCE70000FFFF00FC70B50C461E46154671
:102C8000114600F00DF9002E16D0002229462046EC
:102C900012F025FB29462046626812F019FB616894
:102CA000002903D02A46204612F019FB6560A0686F
:102CB000002800D1A56070BD29462046A26812F008
:102CC0000EFB00222946204612F002FBA1680029D3
:102CD00003D02A46204612F0FBFAA560606800285F
:102CE000E9D1656070BD0021002800D04168084628
:102CF000704700B503460022FFF7F5FF03E01846D2
:102D0000521C00F004F80100F9D1104600BD002863
:102D100003D00068091D401800687047002802D0E1
:102D200000684018006870470021002800D08168C2
:102D3000084670470022C91C4260890889008260E9
:102D40000160704770B50446006808300EF016FB4D
:102D5000050015D001460022204612F0C0FA29468F
:102D60002046626812F0B4FA6168002903D02A464E
:102D7000204612F0B4FA6560A068002800D1A56072
:102D8000284670BDF8B50D4607002BD0002D29D080
:102D9000FFF7A9FFA84204D13846FFF7D3FF044646
:102DA0001EE0386808300EF0E9FA04001AD029460F
:102DB0003846FFF7B3FF064601462246384612F072
:102DC00087FA32462146384612F089FA22462946C9
:102DD000384612F084FA2A462146384612F078FA2C
:102DE0002046F8BD0020F8BD70B5044600680830E4
:102DF0000EF0C4FA050015D001460022204612F05C
:102E000067FA29462046A26812F069FAA1680029EB
:102E100003D02A46204612F05BFAA56060680028BD
:102E200000D16560284670BD002807D041680029A0
:102E300002D18068002801D000207047012070472F
:102E4000F8B516460D460746B14228D0002E03D0ED
:102E50001146FFF763FF01E0FFF766FF0446A54256
:102E60001DD02946384600F01BF82A462146384630
:102E700012F02EFA22462946384612F030FA2A4637
:102E80003146384612F02BFA32462946384612F0BF
:102E90001FFA002E00D1BD60002C00D17D60F8BD6E
:102EA00070B50A460446FFF71EFF002390420AD180
:102EB00011462046FFF72BFF6060011E01D0002263
:102EC00023E0A36070BD2046FFF72EFF904211461D
:102ED00020460BD1FFF722FFA060011E04D0002284
:102EE000204612F0F5F970BD636070BDFFF716FF64
:102EF000064611462046FFF70AFF054602463146C0
:102F0000204612F0E5F932462946204612F0E7F94C
:102F100070BD10B51C46029B904201DB184610BDE7
:102F2000884201DC204610BD401A521A1B1B584330
:102F30001146FDF71DFA001910BD0000F8B500207C
:102F40000C490546C2005218401CC0B295710228B7
:102F5000F8D3094E0024E700F059002805D00EF000
:102F600065FAF551B81985718580641CE4B2102C9E
:102F7000F1D3F8BDB40000205C110020F8B50500C5
:102F800017D00127102D0AD82D490020C200521851
:102F90009279D2070FD0401CC0B20228F6D300208D
:102FA000C043284C0022D30019198E79F60707D0A8
:102FB00018E00020F8BDC000421897710858F8BD0D
:102FC0008988A9420ED3A94204D1D0000019877183
:102FD000E058F8BD002804DBC3001B199B88994208
:102FE00000D250B2521CD2B2102ADCD3002804DB2B
:102FF000C00001198F712058F8BD0020C1000919C7
:103000008979C90709D0401CC0B21028F6D3002224
:1030100013460DA00AF058F9FEE7C600A05929464C
:103020000EF032FA002804D031198F718D80A05132
:10303000F8BD0022134610480AF046F9FEE70000EA
:10304000B40000205C1100204E6F20667265652080
:103050006275666665722E20496E6372656173657E
:10306000204C565F4D454D5F4255465F4D41585F80
:103070004E554D2E0000000068B3010810B5002128
:103080000C4B0A46CC001C59844209D0491CC9B2D9
:103090000229F7D3084B0021CC001C59844203D1EC
:1030A000C800C018827110BD491CC9B21029F3D3E1
:1030B00010BD0000B40000205C110020002803D0E7
:1030C0000449884201D100207047001F0068400871
:1030D00070470000AC00002003490248034A4860E2
:1030E000026070475C120020A4000020F827000056
:1030F00030B584078D07A40FAD0F0346A54243D119
:103100004DE00C781C704C785C708C789C70CC789E
:10311000DC700C791C714C795C718C799C71CC7968
:10312000DC710C7A1C724C7A5C728C7A9C72CC7A50
:10313000DC720C7B1C734C7B5C738C7B9C73CC7B38
:10314000DC730C7C1C744C7C5C748C7C9C74CC7C20
:10315000DC740C7D1C754C7D5C758C7D9C75CC7D08
:10316000DC750C7E1C764C7E5C768C7E9C76CC7EF0
:10317000DC760C7F1C774C7F5C778C7F9C77CC7FD8
:10318000DC772031203A2033202ABAD804E00C78AA
:103190001C70491C521E5B1C002AF8D130BD002C4B
:1031A00020D004252C1B05E00D781D70491C521EF3
:1031B0005B1C641E002C15D0002AF5D112E00C68AF
:1031C0001C604C685C608C689C60CC68DC600C693E
:1031D0001C614C695C618C699C61CC692031203A2E
:1031E000DC612033202AEAD802E010C9121F10C384
:1031F000042AFAD804E00C781C70491C521E5B1C8F
:10320000002AF8D130BD10B5034604E00C781C70DC
:10321000491C521E5B1C002AF8D110BD10B5034694
:1032200004E00C781C70491C521E5B1C002AF8D16B
:1032300010BD10B5034604E00C781C70491C521EEA
:103240005B1C002AF8D110BD10B5034604E00C78D1
:103250001C70491C521E5B1C002AF8D110BD10B511
:1032600083079B0F0AD00424E31A03E00170401C7B
:10327000521E5B1E002B01D0002AF7D10B025B18F7
:103280000C041B190C061B1909E0036043608360E2
:10329000C360036143618361C3612030203A202A07
:1032A000F3D801E008C0121F042AFBD802E0017025
:1032B000401C521E002AFAD110BD830710B59B0F87
:1032C0000022002B15D00424E31A03E00270401CF6
:1032D000491E5B1E002B0CD00029F7D110BD0260E7
:1032E00042608260C260026142618261C2612030DC
:1032F00020392029F3D801E004C0091F0429FBD894
:1033000002E00270401C491E0029FAD110BD82075C
:1033100010B5920FFF23002A0BD00424A21A03E059
:103320000370401C491E521E002A02D00029F7D10A
:1033300010BD0022D24309E0026042608260C26098
:10334000026142618261C261203020392029F3D8B4
:1033500001E004C0091F0429FBD802E00370401CEF
:10336000491E0029FAD110BDF8B501260024F60245
:103370000746CD02214638460FF052F8002807D004
:103380004168641CB1432943E4B24160402CF1D34D
:103390004024214638460FF043F8002807D0416802
:1033A000641CB1432943E4B24160FF2CF1D3F8BD62
:1033B000F7B586B014461646170A054619E02846A2
:1033C00007990FF02DF80390284607990EF0C0FFDB
:1033D0000002801984B202AA2146039800F0DAFAAA
:1033E000012811D0380606D50798002810D00020F3
:1033F0000790002DE3D17F2000028443292C0BD0BD
:103400002A2C09D0002009E06846008909B0F0BDE7
:1034100028460EF05BFFD0E702480068009068463F
:103420000088F3E7B07C0108F7B582B0110A1446B2
:10343000174601910646A5E0304603990EF0F0FFCD
:1034400005464068010570D481066ED0400507D45A
:103450007F202246000282433046039914F0B0F8E0
:103460007F20000221468143302955D024DC1129D8
:1034700065D010DC05294CD006DC012959D0022981
:1034800044D0042968D144E0062942D0072940D01D
:10349000102961D153E0162954D006DC12294ED0F0
:1034A00013294CD0152957D14CE017294AD0182997
:1034B00048D0202950D148E0602946D010DC40296E
:1034C00034D006DC31292AD032293ED0332943D1E9
:1034D00028E0422939D050292ED054293CD134E05B
:1034E0003C4A881A914207D009DC72292DD09129D3
:1034F0002BD03948C1422FD1686880002AE00128CA
:1035000026D0022821D01F2826D11EE0A8884004FA
:1035100020E0A88800041DE0686880021AE068685E
:10352000400217E06868000214E015E06868C00116
:1035300010E0A888C0040DE0686840010AE06868EF
:10354000C00307E06868800304E06868400301E0A6
:1035500068684000002818DB304603990EF0F8FE3A
:103560000002C01984B26A462146284600F050FA8B
:10357000012815D00198000607D50398002814D01B
:1035800000200390002E00D056E77F2000028443E5
:10359000222C1AD00DDC032C13D0072C0DD116E0F1
:1035A00069460020085E05B0F0BD30460EF08EFE84
:1035B00040E7312C03D0C02C05D00020F3E70F20CA
:1035C000F1E70420EFE70A20EDE7FF20EBE7FF201B
:1035D0000130E8E781800000807FFFFFF7B582B00F
:1035E000110A14461746019106463EE030460399FB
:1035F0000EF016FF05464068010520D481061ED056
:10360000400507D47F2022460002824330460399BA
:1036100013F0D6FF7F212046090288432C2808D0CA
:103620002049401802D0A12809D130E0A8888004A0
:1036300003E06868C10228D40003002817DB304685
:1036400003990EF085FE0002C01984B26A46214635
:10365000284600F01BFA01281CD00198000606D568
:103660000398002819D000200390002EBED17F209F
:10367000000284432C2C05D06D2C03D00948A138BE
:10368000C44202D1002005B0F0BDFF20FBE768680E
:10369000C000D2E768460078F5E730460EF016FE27
:1036A000A2E70000F47FFFFFF7B582B0110A1446CD
:1036B00017460191064637E0304603990EF0B0FEFA
:1036C00005464068010519D4810617D0400507D486
:1036D0007F202246000282433046039913F070FF98
:1036E0007F210902204688436E2830D07F282BD0C6
:1036F0001D49C84202D16868002817DB304603998B
:103700000EF026FE0002C01984B26A462146284601
:1037100000F0FAF901281FD00198000606D5039899
:1037200000281BD000200390002EC5D17F2000026E
:1037300084437E2C04D0BE2C14D00B48C44209D143
:1037400011F036F805B0F0BD68680001D4E768688C
:103750008001D1E70020F5E70098F3E730460EF04E
:10376000B5FDA7E70148EDE7727FFFFF0CB2010846
:10377000014840687047000020000020704730B5C5
:103780000402002083181D465D43A54200D8184658
:103790005208F7D10203120C00070A80000E48807D
:1037A00030BD70B51646054606F084F8040002D513
:1037B0000020C04370BD2968A01C091802223046B1
:1037C000FFF72CFD2146284606F0B6F84006400ECD
:1037D00070BD70B51646054606F06CF8040002D5BB
:1037E0000020C04370BD2968A01C09180222304681
:1037F000FFF714FD2146284606F09EF84006400ECD
:1038000070BD70B5050004D02868002801D00024E0
:1038100004E0002070BD06F03FF804192146284658
:1038200006F08FF8FF28F6D1A41CA0B270BD70B5C9
:103830001646054606F03EF8040002D50020C043B7
:1038400070BD2968A01C091801223046FFF7E6FC6C
:103850002146284606F070F84006400E70BD70B54F
:103860001646054606F026F8040002D50020C0439F
:1038700070BD2968A01C091804223046FFF7CEFC51
:103880002146284606F058F84006400E70BD00005C
:1038900070B50E4605003BD000F078F968688106E7
:1038A00017D08006010E091D28680DF0EDFD0446B5
:1038B00009F006FD002810D0002C29D069680020EE
:1038C0000A0600D501204A0600D5401C8906890E4B
:1038D00010E004200DF052FDE9E7224600230DA080
:1038E00009F0F2FCFEE78A001319803BDB6F491EEA
:1038F000A350C9B28142F6D88000265068680621DC
:10390000C8410121890640181A21C8412C6068600D
:1039100070BD00004F7574206F66206D656D6F720D
:103920007900000070B505460079000603D52846E9
:1039300000F023F970BD04200DF020FD044609F0CD
:10394000BFFC002816D0002C1AD0204610F0E1FB56
:1039500021462846FFF79CFF68688021084368607D
:10396000400605D5286806C8083802602868416006
:10397000204670BD2246002302A009F0A5FCFEE708
:10398000002070BD4F7574206F66206D656D6F727D
:1039900079000000F7B582B01746060036D03068CF
:1039A000002831D003980024000AE443019000204D
:1039B0006946088005461FE0E9B2304610F033FC46
:1039C0006A460399FFF7EDFE0199884203D16846E4
:1039D0000088388017E071680A0605D5002803DBE7
:1039E000002D01D1C905F2D5A04203DD0446684689
:1039F000008838806D1C2DB230798006800EA84278
:103A0000DADC002C02DB012005B0F0BD0020FBE772
:103A1000F7B582B01746060036D03068002831D09E
:103A200003980024000AE4430190002069460880BE
:103A300005461FE0E9B2304610F0F5FB6A460399EF
:103A4000FFF7C7FE0199884203D168460088388095
:103A500017E071680A0605D5002803DB002D01D1A7
:103A6000C905F2D5A04203DD0446684600883880C7
:103A70006D1C2DB230798006800EA842DADC002C55
:103A800002DB012005B0F0BD0020FBE7F7B582B0F6
:103A90001746060036D03068002831D0039800243D
:103AA000000AE443019000206946087005461FE0C3
:103AB000E9B2304610F0B7FB6A460399FFF7B7FE4C
:103AC0000199884203D168460078387017E0716820
:103AD0000A0605D5002803DB002D01D1C905F2D562
:103AE000A04203DD04466846007838706D1C2DB294
:103AF00030798006800EA842DADC002C02DB01203F
:103B000005B0F0BD0020FBE7F7B582B01746060010
:103B100031D0306800282CD003980024000AE443F8
:103B2000002501901DE0E9B2304610F07CFB6A46AA
:103B30000399FFF794FE0199884202D100983860FA
:103B400016E071680A0605D5002803DB002D01D1B7
:103B5000C905F3D5A04202DD0446009838606D1C0B
:103B60002DB230798006800EA842DCDC002C02DB0E
:103B7000012005B0F0BD0020FBE70179090601D462
:103B800000207047006800687047000070B50E465E
:103B90004168044688061DD000208906890E17E07A
:103BA00022688300D258B24210D10025012912D0D8
:103BB0008800001F0DF0E2FB054609F081FB00289C
:103BC00014D0002D06D00020014620E0401CC0B2D9
:103BD0008142E5D870BD20680DF028FC2560606842
:103BE0004021800980018843606070BD2A4600231F
:103BF00010A009F069FBFEE722688300D258B242A8
:103C000003D08B00491CEA50C9B2401CC0B22279D3
:103C10009206920E8242EFD820680DF007FC606891
:103C20000621C8413F21890640181A21C841256054
:103C3000606070BD4F7574206F66206D656D6F722A
:103C40007900000070B5040028D02079400609D51D
:103C5000204610F0DCFA050004D010F025FB2846C1
:103C60000DF0E4FB2079000609D52046FFF785FF1B
:103C7000050004D010F018FB28460DF0D7FB207982
:103C8000800602D020680DF0D1FB00202060606823
:103C9000FF2180098001C1318843606070BD37B564
:103CA00082B0054668468189284605F003FE040077
:103CB00011D40146284605F03FFE69468989400631
:103CC0004904400E490E884205D12868A41C0019F9
:103CD000022204A923E0FF20694608802846FFF756
:103CE00090FD002800D10220001D84B22146284604
:103CF00012F002FA002814D028680222001903A941
:103D0000801FFFF78BFA28680222001904A9001F00
:103D1000FFF784FA2868022200196946801EFFF71F
:103D20007DFA05B030BD37B582B005466846818959
:103D3000284605F0BFFD040011D40146284605F0D1
:103D4000FBFD6946898940064904400E490E8842B8
:103D500005D12868A41C0019022204A923E0FF2031
:103D6000694608802846FFF74CFD002800D1022054
:103D7000001D84B22146284612F0BEF9002814D056
:103D800028680222001903A9801FFFF747FA286854
:103D90000222001904A9001FFFF740FA2868022236
:103DA00000196946801EFFF739FA05B030BD37B5F6
:103DB00082B0054668468189284605F07BFD0400EF
:103DC00011D40146284605F0B7FD694689894006A9
:103DD0004904400E490E884205D12868A41C0019E8
:103DE000012204A923E0FF20694608802846FFF746
:103DF00008FD002800D10220C01C84B221462846BC
:103E000012F07AF9002814D028680222001903A9B8
:103E1000401FFFF703FA28680122001904A9C01EF9
:103E2000FFF7FCF92868022200196946801EFFF797
:103E3000F5F905B030BD37B582B0054668468189D1
:103E4000284605F037FD040011D40146284605F048
:103E500073FD6946898940064904400E490E88422F
:103E600005D12868A41C0019042204A923E0FF201E
:103E7000694608802846FFF7C4FC002800D10220CC
:103E8000801D84B22146284612F036F9002814D04D
:103E900028680222001903A90838FFF7BFF928682B
:103EA0000422001904A9801FFFF7B8F9286802222C
:103EB00000196946801EFFF7B1F905B030BD00005A
:103EC00010B518210348FEF735FF0349012008709B
:103ED00010BD0000F0100020C400002010B5FF2429
:103EE00069342146FCF744FA002901DA091909B2BC
:103EF0000C4A5A2901DA480007E008465A385A287D
:103F000005D2B420401A00B24000105E10BD084631
:103F1000B4385A2800D3601A00B24000105A404208
:103F200000B210BD28B20108FFB587B0109E1D4633
:103F3000040007D00898002805D0122006420FD0B0
:103F4000002003E000200BB0F0BD401C215C0A29DA
:103F500004D00D2902D00029F7D1F4E7401CF2E784
:103F6000B00700D5234D002069460875224F049004
:103F700023E0002006900498002828D0002305AAFA
:103F800006A9039302920191201800962B46099AE4
:103F9000089910F095FC0699691A0DB2002818D0FE
:103FA00004990918049120780A280CD00D280AD009
:103FB000605C0A2815D00D2813D00498205C0028D6
:103FC00001D0002DD5DC049800280DD010E001238D
:103FD000D5E7049800280BD17A6804A920469047B9
:103FE000F1E7481C0490EEE77A6804A92046904760
:103FF0000498A8E7187C0000D4000020FFB5044610
:10400000002083B020800F46608000294CD00598A6
:10401000002849D00E98800701D525480D9000252D
:1040200005980195068927E00E980090781902906E
:104030000D9B069A0599FFF777FF01991D4A4018D5
:10404000019002200C99205E7118411891422BD8E2
:104050000C998019401860800E9800900198069B7A
:10406000411B059A029800F027F80021615E814209
:1040700000DB08462080019D785D0028D4D1002D0A
:104080000BD078192038C07F0A2801D00D2804D120
:104090000C9861883018081860800220205E002883
:1040A00004D00C99401A608007B0F0BD6680FBE731
:1040B000187C0000FF7F0000FFB585B01F460E464C
:1040C00005000DD0079800280BD02878002808D0CC
:1040D00000206946029004460873002E24D12AE08D
:1040E000002009B0F0BD154A02A952682846904741
:1040F00000900298114A28185268002190470190B8
:104100000E98C00705D003A8009900F019F8002800
:104110000AD1019A009907980AF001FF00B200281D
:1041200002DD2018C01904B20298B042DBD3002C83
:1041300001DDE01B04B22046D3E70000D4000020DC
:1041400000230278232902D0012A0ED010E0002A91
:1041500005D00021012A04D0022A04D008E0012160
:1041600001E0017004E0017001E0202902D0012388
:10417000184670470221F6E7FFB581B014460E4697
:1041800013E004986508684387190A9A394601982C
:104190009047002806DDE007C0172C1A04983E1847
:1041A000641E02E0002805DA2C46002CE9D100202C
:1041B00005B0F0BD3846FBE770B505460120C007E5
:1041C0000C4644400E46286813F0D2FC00D22E6004
:1041D0002046296813F0CCFC00D22C6070BD000092
:1041E00070B504468088FCF745FA174D294613F050
:1041F00067FCA061E088FCF73DFA294613F060FCFB
:1042000060612089FCF736FA104913F0E9FC104987
:1042100013F056FCE0616089208260886082E16969
:10422000A06913F04DFC2062608A218A4018FCF7D7
:1042300021FA0546608A218A401AFCF713FA2946BA
:10424000FCF73CF9606270BD0000523C0020FF4466
:104250000000483B10B53220FCF7F4FC082202496C
:104260000248FCF7C9FC10BD1001002000240140E9
:1042700010B5074C012020700648FEF734FD0028D9
:1042800004D00421A06810F049FA10BD0021F9E71C
:104290007C0000202C11002030B50346044620335A
:1042A000987E216B91B0820707D4228F002A07D015
:1042B0001F4DAA421ED0521E2287228F002A19D1DA
:1042C000002901D0820715D5402221466846FEF715
:1042D0000FFF21461748FEF7E3FD20460DF0A6F834
:1042E000FFF7C6FF0398002802D0014668468847BA
:1042F00011B030BD626B5242A2620029F8D0820731
:1043000002D4E26A5242A2628207D2175200921C81
:104310009207FD25920F284002439A76236AA069EE
:10432000A3612062900700D4E16B6162E0E70000C6
:10433000FFFF00002C11002070B52D4D686810F0B3
:10434000A5FA0646687801214840687042E00020DE
:10435000287020462030817E4A07D30F6A78934226
:104360003CD0FB231940920011438176A16A881941
:10437000002906DC002804DBA168002901D02046C2
:104380008847A06A8019A06221D4616A884200DD52
:10439000A16222692146002A03D0204610309047AE
:1043A00003E02046103007F06BFBE169814207D043
:1043B000E0616268002A03D0236801B21846904782
:1043C000A16A606A814202DB2046FFF765FF287818
:1043D000002803D00748FEF786FC03E02146054885
:1043E000FEF795FC0400B2D110F056FA686070BD7B
:1043F0007C0000202C11002070B504468068154612
:104400000E46002801D0FFF7F7FF6268002A03D0AC
:1044100029463046904770BD2368002BFBD00348E7
:104420002A4631460068984770BD0000EC00002025
:1044300070B5404C20681C300FF036FF3E4E2068AF
:104440000021F2681C300FF06DFF002009F03EF8EB
:1044500019214843FF2540355030A84209DD00208E
:1044600009F034F819214843A0215030FBF780FFB0
:1044700000E0012002B2206800211C300FF05EFF36
:104480002068012200211C300FF052FF20682030EC
:104490000FF00AFF308C800701D5284800E028483B
:1044A00007F08AFD02462068002120300FF03AFF15
:1044B000002009F00BF8192148435030A84209DDCB
:1044C000002009F003F819214843A0215030FBF7E0
:1044D0004FFF00E0012002B22068002120300FF0E1
:1044E0002DFF20680122002120300FF021FF2068DD
:1044F00024300FF0D9FE2068124A002124300FF03A
:104500006BFF20680022114624300FF059FF20680D
:104510000022114624300FF03BFF20680022114694
:1045200024300FF041FF20680022114624300FF0A4
:1045300041FF70BDF00000207C260020D9D7D400B8
:104540004D494500FF7F0000F8B5514C20682830E8
:104550000FF0AAFE4F4F20683A46002128300FF096
:104560003BFF2068FF22002128300FF0ACFE4A4DAF
:10457000288C800701D5494800E0494807F01CFD18
:1045800002462068002128300FF097FE454E288C07
:104590003268800703D5444807F00EFD02462068C4
:1045A000002128300FF07AFF20680021EA682830C7
:1045B0000FF0D6FE38486946C0890880206804217B
:1045C000009A28300FF0CCFE2068002211462830D7
:1045D0000FF0CCFE20687F22022128300FF0C6FEAB
:1045E000288C800601D5002012E0002008F06EFF24
:1045F0004000FF2140315030884208DD002008F0A3
:1046000065FF4000A0215030FBF7B2FE00E0012022
:1046100002B22068002128300FF0B4FE206800228A
:10462000114628300FF034FF20684C22002128303A
:104630000FF028FF20682C300FF036FE2068FF2294
:1046400000212C300FF03FFE20683A4600212C302C
:104650000FF0C2FE20680021EA682C300FF02DFE1A
:10466000124807F0B5FC0246206820212C300FF0DC
:1046700024FE288C7268800703D50D4807F09CFC47
:104680000246206800212C300FF008FFF8BD000022
:10469000F0000020FF7F00007C260020D9D7D40046
:1046A0004D494500E0B201084F4031008808000044
:1046B0004F404100F8B5F94D28680FF0F5FDFF2295
:1046C000002128680FF0FFFDF54C208C800701D5F4
:1046D000F44800E0F44807F06FFC02460021286827
:1046E0000FF0EBFD208CF14F800701D5F04800E082
:1046F000384607F061FC0246002128680FF09CFE56
:10470000208C800701D5EA4800E0384607F054FCC9
:104710000246002128680FF0C1FE208C2E68800719
:1047200001D5E34800E0384607F046FC0246E1497F
:104730003046FFF7B4FADF492868491CE268FFF702
:10474000AEFA0021626928680FF0AEFE2868001DED
:104750000FF0AAFD002008F0B9FEC000FF26403689
:104760005030B04208DD002008F0B0FEC000A021AB
:104770005030FBF7FDFD00E0012002B22868002167
:10478000001D0FF029FE2868FF220021001D0FF0F8
:104790009AFD208C800701D5C74800E0C74807F084
:1047A0000BFC024628680021001D0FF086FD208CBE
:1047B000800701D5C24800E0C24807F0FDFB024671
:1047C00028680021001D0FF084FD208C800605D490
:1047D00028680221E268001D0FF07BFDB0486946A1
:1047E000C089088028680421009A001D0FF071FD1F
:1047F000002008F06BFE40005030B04208DD002081
:1048000008F064FE4000A0215030FBF7B1FD00E04D
:10481000012002B228680021001D0FF06CFD2868FD
:1048200001223321001DFFF77EFA208C800701D57D
:104830009F4800E0A04807F0BFFB0246286800211F
:10484000001D0FF0F9FD286800216269001D0FF0BE
:104850002BFE208C800701D5954800E0964807F094
:10486000ABFB024628680021001D0FF017FE208CCC
:10487000800701D58E4800E08F4807F09DFB024677
:1048800028680021001D0FF043FD208C800701D512
:10489000874800E0884807F08FFB0246286800211F
:1048A000001D0FF03FFD286801220021001D0FF0C0
:1048B00045FD002008F06AFE01280DD8002008F010
:1048C00005FE0101081A5030B04218DD002008F042
:1048D000FDFD0101081A0CE0002008F0F7FD1E2183
:1048E00048435030B0420ADD002008F0EFFD1E21A1
:1048F0004843A0215030FBF73BFD074600E001276D
:10490000002008F0E3FD40005030B04208DD0020F8
:1049100008F0DCFD4000A0215030FBF729FD00E04D
:104920000120381802B228680021001D0FF03CFD5C
:10493000002008F02BFE01280DD8002008F0C6FD4D
:104940000101081A5030B04218DD002008F0BEFD09
:104950000101081A0CE0002008F0B8FD1E214843B0
:104960005030B0420ADD002008F0B0FD1E2148435F
:10497000A0215030FBF7FCFC074600E00127002097
:1049800008F0A4FD40005030B04208DD002008F0DF
:104990009DFD4000A0215030FBF7EAFC00E0012023
:1049A000381802B228680021001D0FF003FD002016
:1049B00008F0ECFD01280DD8002008F087FD01016A
:1049C000081A5030B04218DD002008F07FFD0101C8
:1049D000081A0CE0002008F079FD1E2148435030F1
:1049E000B0420ADD002008F071FD1E214843A021DD
:1049F0005030FBF7BDFC074600E00127002008F01F
:104A000065FD40005030B04208DD002008F05EFD3A
:104A10004000A0215030FBF7ABFC00E0012038182B
:104A200002B228680021001D0FF0CAFC002008F027
:104A3000ADFD01280DD8002008F048FD0101081A3D
:104A40005030B04218DD002008F040FD0101081A86
:104A50000CE0002008F03AFD1E2148435030B042DF
:104A60000ADD002008F032FD1E214843A02150300D
:104A7000FBF77EFC074600E00127002008F026FD3A
:104A800040005030B0421FDD002008F01FFD400004
:104A9000A0215030FBF76CFC17E00000F000002074
:104AA0007C260020F3EFEA005A4B4400ECE9E700D3
:104AB000423E3B008A800000FFFFFF007362580007
:104AC000E3DDD600978A80000120381802B22868FA
:104AD0000021001D0FF05CFC002008F057FD0128AC
:104AE0000DD8002008F0F2FC0101081A5030B04245
:104AF00017DD002008F0EAFC0101081A0CE0002094
:104B000008F0E4FC1E2148435030B04209DD00208B
:104B100008F0DCFC1E214843A0215030FBF728FCA4
:104B200000E0012002B228680021001D0FF036FCD1
:104B3000286800221146001D0FF0AAFC28683922BF
:104B40000021001D0FF09EFC28680C300FF0ACFB1C
:104B5000296808460C30091D0FF0C9FA208C80071F
:104B600001D5FE4800E0FE4807F026FA0246286814
:104B700000210C300FF0A1FB208C800701D5F948F3
:104B800000E0F94807F018FA0246286800210C30C6
:104B90000FF09FFB208CF54F800701D5F44800E013
:104BA000384607F009FA0246286800210C300FF059
:104BB00043FC208C800701D5ED4800E0384607F023
:104BC000FBF90246286800210C300FF067FC208CAE
:104BD000800701D5E64800E0384607F0EDF90246C7
:104BE000286800210C300FF093FB208C800701D542
:104BF000DF4800E0384607F0DFF902462868002168
:104C00000C300FF08FFB286808300FF04DFB208C24
:104C1000800701D5D74800E0D74807F0CDF9024614
:104C20002868102108300FF048FB28680121E2684D
:104C300008300FF042FB3321E06807F073F90246B9
:104C40002868112108300FF038FB208C800701D52F
:104C5000CA4800E0CA4807F0AFF902462868202198
:104C600008300FF02AFB28680022012108300FF0DD
:104C700042FB3321E06807F055F90246286812210B
:104C800008300FF026FB208CBE4F800703D5BE48AE
:104C900007F09EF902E0384607F08EF902462868D0
:104CA000102108300FF015FB208C800701D5B74884
:104CB00000E0384607F080F90246286801210830F4
:104CC0000FF007FB208C800701D5B04800E0384684
:104CD00007F072F902462868112108300FF0F9FA3E
:104CE000208C800701D5AA4800E0384607F064F917
:104CF00002462868202108300FF0EBFA208C80074C
:104D000001D5A24800E09D4807F056F90246286800
:104D1000102108300FF090FB984807F04DF902463B
:104D20002868012108300FF087FB944807F044F908
:104D300002462868112108300FF07EFB208C954F29
:104D4000800701D5384600E0934807F041F9024654
:104D50002868202108300FF06FFB208C800701D5D8
:104D60008A4800E0854807F027F9024628681021A4
:104D700008300FF0CDFA814807F01EF90246286886
:104D8000012108300FF0C4FA7C4807F015F90246FB
:104D90002868112108300FF0BBFA208C800701D55C
:104DA000384600E07C4807F013F9024628682021C5
:104DB00008300FF0ADFA28682922002108300FF0E2
:104DC0005BFB286810300FF06FFA2868734A0021E7
:104DD00010300FF001FB2868FF22002110300FF087
:104DE00072FA208C800701D5644800E0644807F01F
:104DF000E3F802462868002110300FF05EFA208C9C
:104E0000800704D55D4807F0D7F8332203E05C48FB
:104E100007F0D2F84C220146E06807F007FB024693
:104E20002868102110300FF048FA28680121E26844
:104E300010300FF042FA4C21E06807F073F8024698
:104E40002868112110300FF038FA208C800701D526
:104E50004A4800E04A4807F0AFF802462868202197
:104E600010300FF02AFA208C4D4F800701D54648AC
:104E700000E0384607F0ACF80246286821211030DF
:104E80000FF01BFA28680021E26810300FF021FAB9
:104E900028681021E26810300FF01BFA208C800780
:104EA00003D5384607F094F802E02F4807F084F85D
:104EB00002462868202110300FF00BFA002008F07D
:104EC00005FB40005030B04208DD002008F0FEFA3B
:104ED0004000A0215030FBF74BFA00E0012002B265
:104EE0002868002110300FF006FA286800220121FE
:104EF00010300FF0F4F9208C800701D51C4800E039
:104F00001E4807F059F802462868002110300FF0BB
:104F100093FA208C800701D5154800E0174807F068
:104F20004BF802462868102110300FF085FA134F15
:104F3000384607F041F802462868012110300FF08A
:104F40007BFA384607F038F80246286811211030FD
:104F50000FF072FA134807F02FF825E0D9D7D400E4
:104F60004D494500EDE7DF0040404000ADA8A500F9
:104F70004F403100EEEEEE00574F4900FFFFFF00BB
:104F8000736258006E655F00CC0C0000423E3B002F
:104F9000E3DDD600AA0A000099090000FF7F0000A7
:104FA0008808000088888800024628682021103080
:104FB0000FF042FA208C800701D5DE4800E0384629
:104FC00006F0FAFF02462868002110300FF0A0F921
:104FD000208C800701D5D74800E0384606F0ECFF6A
:104FE00002462868102110300FF092F9384606F07A
:104FF000E3FF02462868102110300FF089F9384687
:1050000006F0DAFF02462868112110300FF080F90F
:10501000C94806F0D1FF02462868202110300FF061
:1050200077F9208C800701D5C24800E0384606F0A9
:10503000C3FF02462868002110300FF02FFA208CA1
:10504000800701D5BB4800E0384606F0B5FF0246B0
:105050002868102110300FF021FA384606F0ACFF16
:1050600002462868012110300FF018FA384606F081
:10507000A3FF02462868112110300FF00FFAAE4846
:1050800006F09AFF02462868202110300FF006FA39
:10509000002008F01BFA282148435030B04209DDB7
:1050A000002008F013FA28214843A0215030FBF7D4
:1050B0005FF900E0012002B22868002110300FF0F3
:1050C00073F9002008F002FA282148435030B0421A
:1050D00009DD002008F0FAF928214843A0215030CA
:1050E000FBF746F900E0012002B2286800211030E9
:1050F0000FF060F9002008F0E9F90101081A5030BA
:10510000B04209DD002008F0E1F90101081AA021F0
:105110005030FBF72DF900E0012002B22868002191
:1051200010300FF04DF9002008F0D0F90101081AF5
:105130005030B04209DD002008F0C8F90101081A1A
:10514000A0215030FBF714F900E0012002B22868DA
:10515000002110300FF01CF9002008F0B7F91421DD
:1051600048435030B04209DD002008F0AFF9142167
:105170004843A0215030FBF7FBF800E0012002B2C9
:105180002868002110300FF009F9208C800601D525
:10519000002010E0002008F099F940005030B042A3
:1051A00008DD002008F092F94000A0215030FBF704
:1051B000DFF800E0012002B22868002110300FF073
:1051C000E1F828680022114610300FF0CFF8286867
:1051D0007F22022110300FF0C9F828680021E26810
:1051E00010300FF0BDF855486946C089088028681E
:1051F0000421009A10300FF0B3F8286800221146FD
:1052000010300FF045F928683C22B5211030FEF728
:105210008AFD28682922002110300FF02DF9286816
:105220004C22002110300FF02DF928680022114681
:1052300010300FF01BF928680022102110300FF0F9
:1052400015F9286814300FF02FF8002008F09EF9A7
:1052500001280CD8002008F039F9142148435030B7
:10526000B04216DD002008F031F914210BE00020D7
:1052700008F02CF9282148435030B04209DD0020C5
:1052800008F024F928214843A0215030FBF770F89A
:1052900000E0012002B22868002114300FF07EF8EF
:1052A000286818300FF000F8002008F06FF9012886
:1052B0000CD8002008F00AF90A2148435030B042C7
:1052C00016DD002008F002F90A210BE0002008F0AA
:1052D000FDF8142148435030B04209DD002008F0A9
:1052E000F5F814214843A0215030FBF741F800E0C5
:1052F000012004B228682246002118300FF054F82B
:1053000028682246002118300FF054F828682246F9
:10531000002118300FF054F8286822460021183078
:105320000FF036F828682246002118300FF036F8C2
:10533000F8BD00004F403100888888007C2600209E
:1053400070B51C46032B15D104241300FCF732FB67
:1053500008120507090B0D0F111202220AE00422A0
:1053600008E0062206E0092204E00B2202E00D22FA
:1053700000E00F224B031D0C4907490F0823591A5F
:105380000E1B0121A140491EC943435DB1400B40A2
:10539000B2401343435570BDF8B5FB4C2068343020
:1053A0000EF082FF20680022114634300FF008F81A
:1053B000002008F0EBF8FF25403501280DD800202B
:1053C00008F084F80101081A5030A84217DD0020C7
:1053D00008F07CF80101081A0CE0002008F076F8CB
:1053E0001E2148435030A84209DD002008F06EF825
:1053F0001E214843A0215030FAF7BAFF00E00120F7
:1054000002B22068002134300EF0CEFF002008F0F8
:10541000BDF801280DD8002008F058F80101081A3D
:105420005030A84217DD002008F050F80101081A9A
:105430000CE0002008F04AF81E2148435030A842F2
:1054400009DD002008F042F81E214843A021503019
:10545000FAF78EFF00E0012002B22068002134300C
:105460000EF0A8FF20680022114634300EF090FFA5
:10547000002008F08BF801280DD8002008F026F84D
:105480000101081A5030A84217DD002008F01EF86C
:105490000101081A0CE0002008F018F81E2148430A
:1054A0005030A84209DD002008F010F81E214843C2
:1054B000A0215030FAF75CFF00E0012002B2206822
:1054C000002134300EF046FF002008F05FF801287C
:1054D0000DD8002007F0FAFF0101081A5030A84249
:1054E00017DD002007F0F2FF0101081A0CE0002090
:1054F00007F0ECFF1E2148435030A84209DD002090
:1055000007F0E4FF1E214843A0215030FAF730FF96
:1055100000E0012002B22068002134300EF014FFB8
:105520009A489B4EC269308C800703D5994806F093
:1055300043FD02462068102134300EF07DFF2068C4
:1055400038300EF0B1FE308C800703D5924806F05B
:1055500033FD02E0914806F03BFD02462068002141
:1055600038300EF069FF002008F010F801280DD83F
:10557000002007F0ABFF0101081A5030A84217DDE8
:10558000002007F0A3FF0101081A0CE0002007F03B
:105590009DFF1E2148435030A84209DD002007F03E
:1055A00095FF1E214843A0215030FAF7E1FE00E0AC
:1055B000012002B22068002138300EF0F5FE0020F4
:1055C00007F0E4FF01280DD8002007F07FFF01015C
:1055D000081A5030A84217DD002007F077FF0101BC
:1055E000081A0CE0002007F071FF1E2148435030DC
:1055F000A84209DD002007F069FF1E214843A021D1
:105600005030FAF7B5FE00E0012002B22068002118
:1056100038300EF0CFFE002007F0B8FF01280DD87B
:10562000002007F053FF0101081A5030A84217DD8F
:10563000002007F04BFF0101081A0CE0002007F0E2
:1056400045FF1E2148435030A84209DD002007F0E5
:105650003DFF1E214843A0215030FAF789FE00E0AB
:10566000012002B22068002138300EF091FE20683F
:1056700030300EF019FE002007F028FF8000503077
:10568000A84208DD002007F021FF8000A021503053
:10569000FAF76EFE00E0012002B2206800213030EF
:1056A0000EF09AFE39480746026A308C2037800790
:1056B00003D5394806F080FC0246206801213030CD
:1056C0000EF0BAFE31482021426A206830300EF0D8
:1056D000B3FE308C800701D5332200E066222068BB
:1056E000012130300EF0EFFD2068332210213030E0
:1056F0000EF0E9FD2068FF22022130300EF0E3FDBC
:1057000022480221826A206830300EF095FE20681F
:105710000221F26830300EF0D0FD308CFA6880073C
:1057200003D51F4806F048FC0246206800213030AF
:105730000EF0C3FD20680121F26830300EF0BDFD8F
:1057400020680222012130300EF0D5FD20680422AD
:10575000012130300EF0C9FD20680121F26830309F
:105760000EF0B7FD002007F0B1FE410040185030A8
:10577000A84217DD002007F0A9FE41004018A02133
:105780005030FAF7F5FD0EE0F0000020E0B201081D
:105790007C260020888888004F403100EE0E0000F3
:1057A00066666600012002B22068002130300EF0EB
:1057B000F5FD002007F0EAFE01280DD8002007F0D3
:1057C00085FE0101081A5030A84217DD002007F0BD
:1057D0007DFE0101081A0CE0002007F077FE1E2173
:1057E00048435030A84209DD002007F06FFE1E211B
:1057F0004843A0215030FAF7BBFD00E0012002B27F
:105800002068002130300EF0CFFD002007F0BEFEF2
:1058100001280DD8002007F059FE0101081A503068
:10582000A84217DD002007F051FE0101081A0CE024
:10583000002007F04BFE1E2148435030A84209DDEE
:10584000002007F043FE1E214843A0215030FAF704
:105850008FFD00E0012002B22068002130300EF000
:10586000A9FD002007F092FE01280DD8002007F0C6
:105870002DFE0101081A5030A84217DD002007F064
:1058800025FE0101081A0CE0002007F01FFE1E2172
:1058900048435030A84209DD002007F017FE1E21C2
:1058A0004843A0215030FAF763FD00E0012002B226
:1058B0002068002130300EF06BFDF8BDF8B56A4D60
:1058C000286844300EF0F0FC684F388C80071CD5F7
:1058D000674806F07DFB02462868002144300EF040
:1058E000ABFD286848300EF0DFFC002007F0EEFD2D
:1058F000FF2440345030A0420BDD002007F0E6FDCD
:10590000A0215030FAF734FD04E05A4806F054FB69
:10591000E1E7012002B22868002148300EF00EFDB8
:105920002E680020483607F0D1FD0A214843503048
:10593000A04209DD002007F0C9FD0A214843A0214B
:105940005030FAF715FD00E0012002B292213046F6
:10595000FEF7E9F92E680020483607F0B7FD0A2166
:1059600048435030A04209DD002007F0AFFD0A2176
:105970004843A0215030FAF7FBFC00E0012002B2BE
:1059800093213046FEF7CFF9388C800701D53A488D
:1059900000E03A4806F010FB024628680021483033
:1059A0000EF0C0FC28684C300EF07EFC002007F0A2
:1059B0008DFD410040185030A04209DD002007F065
:1059C00085FD41004018A0215030FAF7D1FC00E0DD
:1059D000012002B2286800214C300EF0AFFC0020FC
:1059E00007F074FD80005030A04208DD002007F071
:1059F0006DFD8000A0215030FAF7BAFC00E00120D4
:105A000002B2286800214C300EF010FD002007F093
:105A10005DFD40005030A04208DD002007F056FD3B
:105A20004000A0215030FAF7A3FC00E0012002B2B0
:105A3000286800214C300EF0B1FC002007F046FD34
:105A40005030A04207DD002007F040FDA02150307B
:105A5000FAF78EFC00E0012002B2286800214C30E9
:105A60000EF0BAFCF8BD0000F00000207C260020FB
:105A7000AA0A0000BDADA100E3DDD600978A800030
:105A800070B59C4C206850300EF00EFC002007F0E2
:105A90001DFD8000FF2540355030A84208DD002064
:105AA00007F014FD8000A0215030FAF761FC00E0FF
:105AB000012002B22068002150300EF08DFC002041
:105AC00007F004FD0A2148435030A84209DD0020B8
:105AD00007F0FCFC0A214843A0215030FAF748FCAB
